{
    "_format": "hh-sol-artifact-1",
    "contractName": "CustomDex",
    "sourceName": "contracts/CustomEx.sol",
    "abi": [
        {
            "inputs": [],
            "stateMutability": "nonpayable",
            "type": "constructor"
        },
        {
            "inputs": [],
            "name": "_historyIndex",
            "outputs": [
                {
                    "internalType": "uint256",
                    "name": "",
                    "type": "uint256"
                }
            ],
            "stateMutability": "view",
            "type": "function"
        },
        {
            "inputs": [],
            "name": "getAllHistory",
            "outputs": [
                {
                    "components": [
                        {
                            "internalType": "uint256",
                            "name": "historyId",
                            "type": "uint256"
                        },
                        {
                            "internalType": "string",
                            "name": "tokenA",
                            "type": "string"
                        },
                        {
                            "internalType": "string",
                            "name": "tokenB",
                            "type": "string"
                        },
                        {
                            "internalType": "uint256",
                            "name": "inputValue",
                            "type": "uint256"
                        },
                        {
                            "internalType": "uint256",
                            "name": "outputValue",
                            "type": "uint256"
                        },
                        {
                            "internalType": "address",
                            "name": "userAddress",
                            "type": "address"
                        }
                    ],
                    "internalType": "struct CustomDex.History[]",
                    "name": "",
                    "type": "tuple[]"
                }
            ],
            "stateMutability": "view",
            "type": "function"
        },
        {
            "inputs": [
                {
                    "internalType": "string",
                    "name": "tokenName",
                    "type": "string"
                }
            ],
            "name": "getBalance",
            "outputs": [
                {
                    "internalType": "uint256",
                    "name": "",
                    "type": "uint256"
                }
            ],
            "stateMutability": "view",
            "type": "function"
        },
        {
            "inputs": [],
            "name": "getEtherBalance",
            "outputs": [
                {
                    "internalType": "uint256",
                    "name": "",
                    "type": "uint256"
                }
            ],
            "stateMutability": "view",
            "type": "function"
        },
        {
            "inputs": [
                {
                    "internalType": "string",
                    "name": "tokenName",
                    "type": "string"
                }
            ],
            "name": "getName",
            "outputs": [
                {
                    "internalType": "string",
                    "name": "",
                    "type": "string"
                }
            ],
            "stateMutability": "view",
            "type": "function"
        },
        {
            "inputs": [
                {
                    "internalType": "string",
                    "name": "tokenName",
                    "type": "string"
                }
            ],
            "name": "getTokenAddress",
            "outputs": [
                {
                    "internalType": "address",
                    "name": "",
                    "type": "address"
                }
            ],
            "stateMutability": "view",
            "type": "function"
        },
        {
            "inputs": [
                {
                    "internalType": "string",
                    "name": "tokenName",
                    "type": "string"
                }
            ],
            "name": "getTotalSupply",
            "outputs": [
                {
                    "internalType": "uint256",
                    "name": "",
                    "type": "uint256"
                }
            ],
            "stateMutability": "view",
            "type": "function"
        },
        {
            "inputs": [
                {
                    "internalType": "string",
                    "name": "tokenName",
                    "type": "string"
                }
            ],
            "name": "swapEthToToken",
            "outputs": [
                {
                    "internalType": "uint256",
                    "name": "",
                    "type": "uint256"
                }
            ],
            "stateMutability": "payable",
            "type": "function"
        },
        {
            "inputs": [
                {
                    "internalType": "string",
                    "name": "tokenName",
                    "type": "string"
                },
                {
                    "internalType": "uint256",
                    "name": "amount",
                    "type": "uint256"
                }
            ],
            "name": "swapTokenToEth",
            "outputs": [
                {
                    "internalType": "uint256",
                    "name": "",
                    "type": "uint256"
                }
            ],
            "stateMutability": "nonpayable",
            "type": "function"
        },
        {
            "inputs": [
                {
                    "internalType": "string",
                    "name": "srcToken",
                    "type": "string"
                },
                {
                    "internalType": "string",
                    "name": "destToken",
                    "type": "string"
                },
                {
                    "internalType": "uint256",
                    "name": "amount",
                    "type": "uint256"
                }
            ],
            "name": "swapTokenToToken",
            "outputs": [
                {
                    "internalType": "uint256",
                    "name": "",
                    "type": "uint256"
                }
            ],
            "stateMutability": "nonpayable",
            "type": "function"
        },
        {
            "inputs": [
                {
                    "internalType": "string",
                    "name": "",
                    "type": "string"
                }
            ],
            "name": "tokenInstanceMap",
            "outputs": [
                {
                    "internalType": "contract ERC20",
                    "name": "",
                    "type": "address"
                }
            ],
            "stateMutability": "view",
            "type": "function"
        },
        {
            "inputs": [
                {
                    "internalType": "uint256",
                    "name": "",
                    "type": "uint256"
                }
            ],
            "name": "tokens",
            "outputs": [
                {
                    "internalType": "string",
                    "name": "",
                    "type": "string"
                }
            ],
            "stateMutability": "view",
            "type": "function"
        }
    ],
    "bytecode": "0x60806040526040518061010001604052806040518060400160405280600a81526020017f546574686572205553440000000000000000000000000000000000000000000081525081526020016040518060400160405280600381526020017f424e42000000000000000000000000000000000000000000000000000000000081525081526020016040518060400160405280600881526020017f55534420436f696e00000000000000000000000000000000000000000000000081525081526020016040518060400160405280600581526020017f737445544800000000000000000000000000000000000000000000000000000081525081526020016040518060400160405280600481526020017f54524f4e0000000000000000000000000000000000000000000000000000000081525081526020016040518060400160405280600b81526020017f4d6174696320546f6b656e00000000000000000000000000000000000000000081525081526020016040518060400160405280600981526020017f534849424120494e55000000000000000000000000000000000000000000000081525081526020016040518060400160405280600781526020017f556e6973776170000000000000000000000000000000000000000000000000008152508152506000906008620001f8929190620003ab565b50670de0b6b3a76400006002553480156200021257600080fd5b5060005b600080549050811015620003a457600080828154811062000260577f4e487b7100000000000000000000000000000000000000000000000000000000600052603260045260246000fd5b9060005260206000200160008381548110620002a5577f4e487b7100000000000000000000000000000000000000000000000000000000600052603260045260246000fd5b90600052602060002001604051620002bd9062000412565b620002ca9291906200066e565b604051809103906000f080158015620002e7573d6000803e3d6000fd5b5090508060016000848154811062000328577f4e487b7100000000000000000000000000000000000000000000000000000000600052603260045260246000fd5b9060005260206000200160405162000341919062000655565b908152602001604051809103902060006101000a81548173ffffffffffffffffffffffffffffffffffffffff021916908373ffffffffffffffffffffffffffffffffffffffff1602179055505080806200039b906200071a565b91505062000216565b50620007c6565b828054828255906000526020600020908101928215620003ff579160200282015b82811115620003fe578251829080519060200190620003ed92919062000420565b5091602001919060010190620003cc565b5b5090506200040e9190620004b1565b5090565b61180e80620026cb83390190565b8280546200042e90620006e4565b90600052602060002090601f0160209004810192826200045257600085556200049e565b82601f106200046d57805160ff19168380011785556200049e565b828001600101855582156200049e579182015b828111156200049d57825182559160200191906001019062000480565b5b509050620004ad9190620004d9565b5090565b5b80821115620004d55760008181620004cb9190620004f8565b50600101620004b2565b5090565b5b80821115620004f4576000816000905550600101620004da565b5090565b5080546200050690620006e4565b6000825580601f106200051a57506200053b565b601f0160209004906000526020600020908101906200053a9190620004d9565b5b50565b600081546200054d81620006e4565b620005598186620006be565b945060018216600081146200057757600181146200058a57620005c1565b60ff1983168652602086019350620005c1565b6200059585620006a9565b60005b83811015620005b95781548189015260018201915060208101905062000598565b808801955050505b50505092915050565b60008154620005d981620006e4565b620005e58186620006cf565b9450600182166000811462000603576001811462000615576200064c565b60ff198316865281860193506200064c565b6200062085620006a9565b60005b83811015620006445781548189015260018201915060208101905062000623565b838801955050505b50505092915050565b6000620006638284620005ca565b915081905092915050565b600060408201905081810360008301526200068a81856200053e565b90508181036020830152620006a081846200053e565b90509392505050565b60008190508160005260206000209050919050565b600082825260208201905092915050565b600081905092915050565b6000819050919050565b60006002820490506001821680620006fd57607f821691505b6020821081141562000714576200071362000797565b5b50919050565b60006200072782620006da565b91507fffffffffffffffffffffffffffffffffffffffffffffffffffffffffffffffff8214156200075d576200075c62000768565b5b600182019050919050565b7f4e487b7100000000000000000000000000000000000000000000000000000000600052601160045260246000fd5b7f4e487b7100000000000000000000000000000000000000000000000000000000600052602260045260246000fd5b611ef580620007d66000396000f3fe6080604052600436106100a75760003560e01c80636932cf81116100645780636932cf81146101e9578063a93325ed14610226578063bf015aae14610263578063c4091236146102a0578063db6f63ee146102dd578063ea46193e1461031a576100a7565b806319b3c12d146100ac57806339c5891a146100d75780633a51d246146101025780634f64b2be1461013f5780635463109e1461017c57806363fcf7c5146101b9575b600080fd5b3480156100b857600080fd5b506100c1610345565b6040516100ce9190611acd565b60405180910390f35b3480156100e357600080fd5b506100ec61034b565b6040516100f99190611a0e565b60405180910390f35b34801561010e57600080fd5b506101296004803603810190610124919061150e565b61061b565b6040516101369190611acd565b60405180910390f35b34801561014b57600080fd5b5061016660048036038101906101619190611663565b6106eb565b6040516101739190611a4b565b60405180910390f35b34801561018857600080fd5b506101a3600480360381019061019e919061150e565b610797565b6040516101b09190611acd565b60405180910390f35b6101d360048036038101906101ce919061150e565b61085c565b6040516101e09190611acd565b60405180910390f35b3480156101f557600080fd5b50610210600480360381019061020b919061150e565b610a25565b60405161021d9190611a4b565b60405180910390f35b34801561023257600080fd5b5061024d6004803603810190610248919061150e565b610aef565b60405161025a9190611a30565b60405180910390f35b34801561026f57600080fd5b5061028a60048036038101906102859190611590565b610b38565b6040516102979190611acd565b60405180910390f35b3480156102ac57600080fd5b506102c760048036038101906102c2919061150e565b610eb1565b6040516102d49190611993565b60405180910390f35b3480156102e957600080fd5b5061030460048036038101906102ff919061160f565b610ef9565b6040516103119190611acd565b60405180910390f35b34801561032657600080fd5b5061032f611215565b60405161033c9190611acd565b60405180910390f35b60035481565b6060600060035490506000808267ffffffffffffffff811115610397577f4e487b7100000000000000000000000000000000000000000000000000000000600052604160045260246000fd5b6040519080825280602002602001820160405280156103d057816020015b6103bd6112e7565b8152602001906001900390816103b55790505b50905060005b838110156106115760006001826103ed9190611bba565b90506000600460008381526020019081526020016000209050806040518060c00160405290816000820154815260200160018201805461042c90611d49565b80601f016020809104026020016040519081016040528092919081815260200182805461045890611d49565b80156104a55780601f1061047a576101008083540402835291602001916104a5565b820191906000526020600020905b81548152906001019060200180831161048857829003601f168201915b505050505081526020016002820180546104be90611d49565b80601f01602080910402602001604051908101604052809291908181526020018280546104ea90611d49565b80156105375780601f1061050c57610100808354040283529160200191610537565b820191906000526020600020905b81548152906001019060200180831161051a57829003601f168201915b5050505050815260200160038201548152602001600482015481526020016005820160009054906101000a900473ffffffffffffffffffffffffffffffffffffffff1673ffffffffffffffffffffffffffffffffffffffff1673ffffffffffffffffffffffffffffffffffffffff16815250508486815181106105e3577f4e487b7100000000000000000000000000000000000000000000000000000000600052603260045260246000fd5b602002602001018190525084806105f990611d7b565b9550505050808061060990611d7b565b9150506103d6565b5080935050505090565b600060018260405161062d919061197c565b908152602001604051809103902060009054906101000a900473ffffffffffffffffffffffffffffffffffffffff1673ffffffffffffffffffffffffffffffffffffffff166370a08231306040518263ffffffff1660e01b81526004016106949190611993565b60206040518083038186803b1580156106ac57600080fd5b505afa1580156106c0573d6000803e3d6000fd5b505050506040513d601f19601f820116820180604052508101906106e4919061168c565b9050919050565b600081815481106106fb57600080fd5b90600052602060002001600091509050805461071690611d49565b80601f016020809104026020016040519081016040528092919081815260200182805461074290611d49565b801561078f5780601f106107645761010080835404028352916020019161078f565b820191906000526020600020905b81548152906001019060200180831161077257829003601f168201915b505050505081565b60006001826040516107a9919061197c565b908152602001604051809103902060009054906101000a900473ffffffffffffffffffffffffffffffffffffffff1673ffffffffffffffffffffffffffffffffffffffff166318160ddd6040518163ffffffff1660e01b815260040160206040518083038186803b15801561081d57600080fd5b505afa158015610831573d6000803e3d6000fd5b505050506040513d601f19601f82011682018060405250810190610855919061168c565b9050919050565b60008034116108a0576040517f08c379a000000000000000000000000000000000000000000000000000000000815260040161089790611a8d565b60405180910390fd5b60003490506000670de0b6b3a7640000600254836108be9190611c10565b6108c89190611c41565b90506001846040516108da919061197c565b908152602001604051809103902060009054906101000a900473ffffffffffffffffffffffffffffffffffffffff1673ffffffffffffffffffffffffffffffffffffffff1663a9059cbb33836040518363ffffffff1660e01b81526004016109439291906119e5565b602060405180830381600087803b15801561095d57600080fd5b505af1158015610971573d6000803e3d6000fd5b505050506040513d601f19601f8201168201806040525081019061099591906114e5565b6109d4576040517f08c379a00000000000000000000000000000000000000000000000000000000081526004016109cb90611a6d565b60405180910390fd5b60006040518060400160405280600581526020017f45746865720000000000000000000000000000000000000000000000000000008152509050610a1a8582858561121d565b819350505050919050565b6060600182604051610a37919061197c565b908152602001604051809103902060009054906101000a900473ffffffffffffffffffffffffffffffffffffffff1673ffffffffffffffffffffffffffffffffffffffff166306fdde036040518163ffffffff1660e01b815260040160006040518083038186803b158015610aab57600080fd5b505afa158015610abf573d6000803e3d6000fd5b505050506040513d6000823e3d601f19601f82011682018060405250810190610ae8919061154f565b9050919050565b6001818051602081018201805184825260208301602085012081835280955050505050506000915054906101000a900473ffffffffffffffffffffffffffffffffffffffff1681565b6000808211610b7c576040517f08c379a0000000000000000000000000000000000000000000000000000000008152600401610b7390611a8d565b60405180910390fd5b81600185604051610b8d919061197c565b908152602001604051809103902060009054906101000a900473ffffffffffffffffffffffffffffffffffffffff1673ffffffffffffffffffffffffffffffffffffffff166370a08231336040518263ffffffff1660e01b8152600401610bf49190611993565b60206040518083038186803b158015610c0c57600080fd5b505afa158015610c20573d6000803e3d6000fd5b505050506040513d601f19601f82011682018060405250810190610c44919061168c565b1015610c85576040517f08c379a0000000000000000000000000000000000000000000000000000000008152600401610c7c90611aad565b60405180910390fd5b600184604051610c95919061197c565b908152602001604051809103902060009054906101000a900473ffffffffffffffffffffffffffffffffffffffff1673ffffffffffffffffffffffffffffffffffffffff166323b872dd3330856040518463ffffffff1660e01b8152600401610d00939291906119ae565b602060405180830381600087803b158015610d1a57600080fd5b505af1158015610d2e573d6000803e3d6000fd5b505050506040513d601f19601f82011682018060405250810190610d5291906114e5565b610d91576040517f08c379a0000000000000000000000000000000000000000000000000000000008152600401610d8890611a6d565b60405180910390fd5b600183604051610da1919061197c565b908152602001604051809103902060009054906101000a900473ffffffffffffffffffffffffffffffffffffffff1673ffffffffffffffffffffffffffffffffffffffff1663a9059cbb33846040518363ffffffff1660e01b8152600401610e0a9291906119e5565b602060405180830381600087803b158015610e2457600080fd5b505af1158015610e38573d6000803e3d6000fd5b505050506040513d601f19601f82011682018060405250810190610e5c91906114e5565b610e9b576040517f08c379a0000000000000000000000000000000000000000000000000000000008152600401610e9290611a6d565b60405180910390fd5b610ea78484848561121d565b8190509392505050565b6000600182604051610ec3919061197c565b908152602001604051809103902060009054906101000a900473ffffffffffffffffffffffffffffffffffffffff169050919050565b6000808211610f3d576040517f08c379a0000000000000000000000000000000000000000000000000000000008152600401610f3490611a8d565b60405180910390fd5b81600184604051610f4e919061197c565b908152602001604051809103902060009054906101000a900473ffffffffffffffffffffffffffffffffffffffff1673ffffffffffffffffffffffffffffffffffffffff166370a08231336040518263ffffffff1660e01b8152600401610fb59190611993565b60206040518083038186803b158015610fcd57600080fd5b505afa158015610fe1573d6000803e3d6000fd5b505050506040513d601f19601f82011682018060405250810190611005919061168c565b1015611046576040517f08c379a000000000000000000000000000000000000000000000000000000000815260040161103d90611aad565b60405180910390fd5b6000670de0b6b3a76400008361105c9190611c10565b905060006002548261106e9190611c41565b90503373ffffffffffffffffffffffffffffffffffffffff166108fc829081150290604051600060405180830381858888f193505050501580156110b6573d6000803e3d6000fd5b506001856040516110c7919061197c565b908152602001604051809103902060009054906101000a900473ffffffffffffffffffffffffffffffffffffffff1673ffffffffffffffffffffffffffffffffffffffff166323b872dd3330876040518463ffffffff1660e01b8152600401611132939291906119ae565b602060405180830381600087803b15801561114c57600080fd5b505af1158015611160573d6000803e3d6000fd5b505050506040513d601f19601f8201168201806040525081019061118491906114e5565b6111c3576040517f08c379a00000000000000000000000000000000000000000000000000000000081526004016111ba90611a6d565b60405180910390fd5b60006040518060400160405280600581526020017f457468657200000000000000000000000000000000000000000000000000000081525090506112098682858561121d565b81935050505092915050565b600047905090565b60006003600081548092919061123290611d7b565b9190505590506000600460008381526020019081526020016000209050818160000181905550338160050160006101000a81548173ffffffffffffffffffffffffffffffffffffffff021916908373ffffffffffffffffffffffffffffffffffffffff160217905550858160010190805190602001906112b3929190611333565b50848160020190805190602001906112cc929190611333565b50838160030181905550828160040181905550505050505050565b6040518060c001604052806000815260200160608152602001606081526020016000815260200160008152602001600073ffffffffffffffffffffffffffffffffffffffff1681525090565b82805461133f90611d49565b90600052602060002090601f01602090048101928261136157600085556113a8565b82601f1061137a57805160ff19168380011785556113a8565b828001600101855582156113a8579182015b828111156113a757825182559160200191906001019061138c565b5b5090506113b591906113b9565b5090565b5b808211156113d25760008160009055506001016113ba565b5090565b60006113e96113e484611b19565b611ae8565b90508281526020810184848401111561140157600080fd5b61140c848285611d07565b509392505050565b600061142761142284611b19565b611ae8565b90508281526020810184848401111561143f57600080fd5b61144a848285611d16565b509392505050565b60008151905061146181611e91565b92915050565b600082601f83011261147857600080fd5b81356114888482602086016113d6565b91505092915050565b600082601f8301126114a257600080fd5b81516114b2848260208601611414565b91505092915050565b6000813590506114ca81611ea8565b92915050565b6000815190506114df81611ea8565b92915050565b6000602082840312156114f757600080fd5b600061150584828501611452565b91505092915050565b60006020828403121561152057600080fd5b600082013567ffffffffffffffff81111561153a57600080fd5b61154684828501611467565b91505092915050565b60006020828403121561156157600080fd5b600082015167ffffffffffffffff81111561157b57600080fd5b61158784828501611491565b91505092915050565b6000806000606084860312156115a557600080fd5b600084013567ffffffffffffffff8111156115bf57600080fd5b6115cb86828701611467565b935050602084013567ffffffffffffffff8111156115e857600080fd5b6115f486828701611467565b9250506040611605868287016114bb565b9150509250925092565b6000806040838503121561162257600080fd5b600083013567ffffffffffffffff81111561163c57600080fd5b61164885828601611467565b9250506020611659858286016114bb565b9150509250929050565b60006020828403121561167557600080fd5b6000611683848285016114bb565b91505092915050565b60006020828403121561169e57600080fd5b60006116ac848285016114d0565b91505092915050565b60006116c183836118ce565b905092915050565b6116d281611c9b565b82525050565b6116e181611c9b565b82525050565b60006116f282611b59565b6116fc8185611b7c565b93508360208202850161170e85611b49565b8060005b8581101561174a578484038952815161172b85826116b5565b945061173683611b6f565b925060208a01995050600181019050611712565b50829750879550505050505092915050565b61176581611ce3565b82525050565b600061177682611b64565b6117808185611b8d565b9350611790818560208601611d16565b61179981611e80565b840191505092915050565b60006117af82611b64565b6117b98185611b9e565b93506117c9818560208601611d16565b6117d281611e80565b840191505092915050565b60006117e882611b64565b6117f28185611baf565b9350611802818560208601611d16565b80840191505092915050565b600061181b600f83611b9e565b91507f5472616e73666572206661696c656400000000000000000000000000000000006000830152602082019050919050565b600061185b600e83611b9e565b91507f496e76616c696420616d6f756e740000000000000000000000000000000000006000830152602082019050919050565b600061189b601483611b9e565b91507f496e73756666696369656e742062616c616e63650000000000000000000000006000830152602082019050919050565b600060c0830160008301516118e6600086018261195e565b50602083015184820360208601526118fe828261176b565b91505060408301518482036040860152611918828261176b565b915050606083015161192d606086018261195e565b506080830151611940608086018261195e565b5060a083015161195360a08601826116c9565b508091505092915050565b61196781611cd9565b82525050565b61197681611cd9565b82525050565b600061198882846117dd565b915081905092915050565b60006020820190506119a860008301846116d8565b92915050565b60006060820190506119c360008301866116d8565b6119d060208301856116d8565b6119dd604083018461196d565b949350505050565b60006040820190506119fa60008301856116d8565b611a07602083018461196d565b9392505050565b60006020820190508181036000830152611a2881846116e7565b905092915050565b6000602082019050611a45600083018461175c565b92915050565b60006020820190508181036000830152611a6581846117a4565b905092915050565b60006020820190508181036000830152611a868161180e565b9050919050565b60006020820190508181036000830152611aa68161184e565b9050919050565b60006020820190508181036000830152611ac68161188e565b9050919050565b6000602082019050611ae2600083018461196d565b92915050565b6000604051905081810181811067ffffffffffffffff82111715611b0f57611b0e611e51565b5b8060405250919050565b600067ffffffffffffffff821115611b3457611b33611e51565b5b601f19601f8301169050602081019050919050565b6000819050602082019050919050565b600081519050919050565b600081519050919050565b6000602082019050919050565b600082825260208201905092915050565b600082825260208201905092915050565b600082825260208201905092915050565b600081905092915050565b6000611bc582611cd9565b9150611bd083611cd9565b9250827fffffffffffffffffffffffffffffffffffffffffffffffffffffffffffffffff03821115611c0557611c04611dc4565b5b828201905092915050565b6000611c1b82611cd9565b9150611c2683611cd9565b925082611c3657611c35611df3565b5b828204905092915050565b6000611c4c82611cd9565b9150611c5783611cd9565b9250817fffffffffffffffffffffffffffffffffffffffffffffffffffffffffffffffff0483118215151615611c9057611c8f611dc4565b5b828202905092915050565b6000611ca682611cb9565b9050919050565b60008115159050919050565b600073ffffffffffffffffffffffffffffffffffffffff82169050919050565b6000819050919050565b6000611cee82611cf5565b9050919050565b6000611d0082611cb9565b9050919050565b82818337600083830152505050565b60005b83811015611d34578082015181840152602081019050611d19565b83811115611d43576000848401525b50505050565b60006002820490506001821680611d6157607f821691505b60208210811415611d7557611d74611e22565b5b50919050565b6000611d8682611cd9565b91507fffffffffffffffffffffffffffffffffffffffffffffffffffffffffffffffff821415611db957611db8611dc4565b5b600182019050919050565b7f4e487b7100000000000000000000000000000000000000000000000000000000600052601160045260246000fd5b7f4e487b7100000000000000000000000000000000000000000000000000000000600052601260045260246000fd5b7f4e487b7100000000000000000000000000000000000000000000000000000000600052602260045260246000fd5b7f4e487b7100000000000000000000000000000000000000000000000000000000600052604160045260246000fd5b6000601f19601f8301169050919050565b611e9a81611cad565b8114611ea557600080fd5b50565b611eb181611cd9565b8114611ebc57600080fd5b5056fea26469706673582212204ddc8447e66b06665cb8b0465e069b0ecba8d93580bc982b6edff8ea817bf4c064736f6c6343000800003360806040523480156200001157600080fd5b506040516200180e3803806200180e83398181016040528101906200003791906200032b565b818181600390805190602001906200005192919062000209565b5080600490805190602001906200006a92919062000209565b505050620000893369d3c21bcecceda10000006200009160201b60201c565b505062000608565b600073ffffffffffffffffffffffffffffffffffffffff168273ffffffffffffffffffffffffffffffffffffffff16141562000104576040517f08c379a0000000000000000000000000000000000000000000000000000000008152600401620000fb90620003f1565b60405180910390fd5b6200011860008383620001ff60201b60201c565b80600260008282546200012c9190620004a8565b92505081905550806000808473ffffffffffffffffffffffffffffffffffffffff1673ffffffffffffffffffffffffffffffffffffffff168152602001908152602001600020600082825401925050819055508173ffffffffffffffffffffffffffffffffffffffff16600073ffffffffffffffffffffffffffffffffffffffff167fddf252ad1be2c89b69c2b068fc378daa952ba7f163c4a11628f55a4df523b3ef83604051620001df919062000413565b60405180910390a3620001fb600083836200020460201b60201c565b5050565b505050565b505050565b828054620002179062000545565b90600052602060002090601f0160209004810192826200023b576000855562000287565b82601f106200025657805160ff191683800117855562000287565b8280016001018555821562000287579182015b828111156200028657825182559160200191906001019062000269565b5b5090506200029691906200029a565b5090565b5b80821115620002b55760008160009055506001016200029b565b5090565b6000620002d0620002ca8462000464565b62000430565b905082815260208101848484011115620002e957600080fd5b620002f68482856200050f565b509392505050565b600082601f8301126200031057600080fd5b815162000322848260208601620002b9565b91505092915050565b600080604083850312156200033f57600080fd5b600083015167ffffffffffffffff8111156200035a57600080fd5b6200036885828601620002fe565b925050602083015167ffffffffffffffff8111156200038657600080fd5b6200039485828601620002fe565b9150509250929050565b6000620003ad601f8362000497565b91507f45524332303a206d696e7420746f20746865207a65726f2061646472657373006000830152602082019050919050565b620003eb8162000505565b82525050565b600060208201905081810360008301526200040c816200039e565b9050919050565b60006020820190506200042a6000830184620003e0565b92915050565b6000604051905081810181811067ffffffffffffffff821117156200045a5762000459620005d9565b5b8060405250919050565b600067ffffffffffffffff821115620004825762000481620005d9565b5b601f19601f8301169050602081019050919050565b600082825260208201905092915050565b6000620004b58262000505565b9150620004c28362000505565b9250827fffffffffffffffffffffffffffffffffffffffffffffffffffffffffffffffff03821115620004fa57620004f96200057b565b5b828201905092915050565b6000819050919050565b60005b838110156200052f57808201518184015260208101905062000512565b838111156200053f576000848401525b50505050565b600060028204905060018216806200055e57607f821691505b60208210811415620005755762000574620005aa565b5b50919050565b7f4e487b7100000000000000000000000000000000000000000000000000000000600052601160045260246000fd5b7f4e487b7100000000000000000000000000000000000000000000000000000000600052602260045260246000fd5b7f4e487b7100000000000000000000000000000000000000000000000000000000600052604160045260246000fd5b6111f680620006186000396000f3fe608060405234801561001057600080fd5b50600436106100a95760003560e01c80633950935111610071578063395093511461016857806370a082311461019857806395d89b41146101c8578063a457c2d7146101e6578063a9059cbb14610216578063dd62ed3e14610246576100a9565b806306fdde03146100ae578063095ea7b3146100cc57806318160ddd146100fc57806323b872dd1461011a578063313ce5671461014a575b600080fd5b6100b6610276565b6040516100c39190610ebf565b60405180910390f35b6100e660048036038101906100e19190610b5e565b610308565b6040516100f39190610ea4565b60405180910390f35b61010461032b565b6040516101119190610fc1565b60405180910390f35b610134600480360381019061012f9190610b0f565b610335565b6040516101419190610ea4565b60405180910390f35b610152610364565b60405161015f9190610fdc565b60405180910390f35b610182600480360381019061017d9190610b5e565b61036d565b60405161018f9190610ea4565b60405180910390f35b6101b260048036038101906101ad9190610aaa565b6103a4565b6040516101bf9190610fc1565b60405180910390f35b6101d06103ec565b6040516101dd9190610ebf565b60405180910390f35b61020060048036038101906101fb9190610b5e565b61047e565b60405161020d9190610ea4565b60405180910390f35b610230600480360381019061022b9190610b5e565b6104f5565b60405161023d9190610ea4565b60405180910390f35b610260600480360381019061025b9190610ad3565b610518565b60405161026d9190610fc1565b60405180910390f35b606060038054610285906110f1565b80601f01602080910402602001604051908101604052809291908181526020018280546102b1906110f1565b80156102fe5780601f106102d3576101008083540402835291602001916102fe565b820191906000526020600020905b8154815290600101906020018083116102e157829003601f168201915b5050505050905090565b60008061031361059f565b90506103208185856105a7565b600191505092915050565b6000600254905090565b60008061034061059f565b905061034d858285610772565b6103588585856107fe565b60019150509392505050565b60006012905090565b60008061037861059f565b905061039981858561038a8589610518565b6103949190611013565b6105a7565b600191505092915050565b60008060008373ffffffffffffffffffffffffffffffffffffffff1673ffffffffffffffffffffffffffffffffffffffff168152602001908152602001600020549050919050565b6060600480546103fb906110f1565b80601f0160208091040260200160405190810160405280929190818152602001828054610427906110f1565b80156104745780601f1061044957610100808354040283529160200191610474565b820191906000526020600020905b81548152906001019060200180831161045757829003601f168201915b5050505050905090565b60008061048961059f565b905060006104978286610518565b9050838110156104dc576040517f08c379a00000000000000000000000000000000000000000000000000000000081526004016104d390610fa1565b60405180910390fd5b6104e982868684036105a7565b60019250505092915050565b60008061050061059f565b905061050d8185856107fe565b600191505092915050565b6000600160008473ffffffffffffffffffffffffffffffffffffffff1673ffffffffffffffffffffffffffffffffffffffff16815260200190815260200160002060008373ffffffffffffffffffffffffffffffffffffffff1673ffffffffffffffffffffffffffffffffffffffff16815260200190815260200160002054905092915050565b600033905090565b600073ffffffffffffffffffffffffffffffffffffffff168373ffffffffffffffffffffffffffffffffffffffff161415610617576040517f08c379a000000000000000000000000000000000000000000000000000000000815260040161060e90610f81565b60405180910390fd5b600073ffffffffffffffffffffffffffffffffffffffff168273ffffffffffffffffffffffffffffffffffffffff161415610687576040517f08c379a000000000000000000000000000000000000000000000000000000000815260040161067e90610f01565b60405180910390fd5b80600160008573ffffffffffffffffffffffffffffffffffffffff1673ffffffffffffffffffffffffffffffffffffffff16815260200190815260200160002060008473ffffffffffffffffffffffffffffffffffffffff1673ffffffffffffffffffffffffffffffffffffffff168152602001908152602001600020819055508173ffffffffffffffffffffffffffffffffffffffff168373ffffffffffffffffffffffffffffffffffffffff167f8c5be1e5ebec7d5bd14f71427d1e84f3dd0314c0f7b2291e5b200ac8c7c3b925836040516107659190610fc1565b60405180910390a3505050565b600061077e8484610518565b90507fffffffffffffffffffffffffffffffffffffffffffffffffffffffffffffffff81146107f857818110156107ea576040517f08c379a00000000000000000000000000000000000000000000000000000000081526004016107e190610f21565b60405180910390fd5b6107f784848484036105a7565b5b50505050565b600073ffffffffffffffffffffffffffffffffffffffff168373ffffffffffffffffffffffffffffffffffffffff16141561086e576040517f08c379a000000000000000000000000000000000000000000000000000000000815260040161086590610f61565b60405180910390fd5b600073ffffffffffffffffffffffffffffffffffffffff168273ffffffffffffffffffffffffffffffffffffffff1614156108de576040517f08c379a00000000000000000000000000000000000000000000000000000000081526004016108d590610ee1565b60405180910390fd5b6108e9838383610a76565b60008060008573ffffffffffffffffffffffffffffffffffffffff1673ffffffffffffffffffffffffffffffffffffffff1681526020019081526020016000205490508181101561096f576040517f08c379a000000000000000000000000000000000000000000000000000000000815260040161096690610f41565b60405180910390fd5b8181036000808673ffffffffffffffffffffffffffffffffffffffff1673ffffffffffffffffffffffffffffffffffffffff16815260200190815260200160002081905550816000808573ffffffffffffffffffffffffffffffffffffffff1673ffffffffffffffffffffffffffffffffffffffff168152602001908152602001600020600082825401925050819055508273ffffffffffffffffffffffffffffffffffffffff168473ffffffffffffffffffffffffffffffffffffffff167fddf252ad1be2c89b69c2b068fc378daa952ba7f163c4a11628f55a4df523b3ef84604051610a5d9190610fc1565b60405180910390a3610a70848484610a7b565b50505050565b505050565b505050565b600081359050610a8f81611192565b92915050565b600081359050610aa4816111a9565b92915050565b600060208284031215610abc57600080fd5b6000610aca84828501610a80565b91505092915050565b60008060408385031215610ae657600080fd5b6000610af485828601610a80565b9250506020610b0585828601610a80565b9150509250929050565b600080600060608486031215610b2457600080fd5b6000610b3286828701610a80565b9350506020610b4386828701610a80565b9250506040610b5486828701610a95565b9150509250925092565b60008060408385031215610b7157600080fd5b6000610b7f85828601610a80565b9250506020610b9085828601610a95565b9150509250929050565b610ba38161107b565b82525050565b6000610bb482610ff7565b610bbe8185611002565b9350610bce8185602086016110be565b610bd781611181565b840191505092915050565b6000610bef602383611002565b91507f45524332303a207472616e7366657220746f20746865207a65726f206164647260008301527f65737300000000000000000000000000000000000000000000000000000000006020830152604082019050919050565b6000610c55602283611002565b91507f45524332303a20617070726f766520746f20746865207a65726f20616464726560008301527f73730000000000000000000000000000000000000000000000000000000000006020830152604082019050919050565b6000610cbb601d83611002565b91507f45524332303a20696e73756666696369656e7420616c6c6f77616e63650000006000830152602082019050919050565b6000610cfb602683611002565b91507f45524332303a207472616e7366657220616d6f756e742065786365656473206260008301527f616c616e636500000000000000000000000000000000000000000000000000006020830152604082019050919050565b6000610d61602583611002565b91507f45524332303a207472616e736665722066726f6d20746865207a65726f20616460008301527f64726573730000000000000000000000000000000000000000000000000000006020830152604082019050919050565b6000610dc7602483611002565b91507f45524332303a20617070726f76652066726f6d20746865207a65726f2061646460008301527f72657373000000000000000000000000000000000000000000000000000000006020830152604082019050919050565b6000610e2d602583611002565b91507f45524332303a2064656372656173656420616c6c6f77616e63652062656c6f7760008301527f207a65726f0000000000000000000000000000000000000000000000000000006020830152604082019050919050565b610e8f816110a7565b82525050565b610e9e816110b1565b82525050565b6000602082019050610eb96000830184610b9a565b92915050565b60006020820190508181036000830152610ed98184610ba9565b905092915050565b60006020820190508181036000830152610efa81610be2565b9050919050565b60006020820190508181036000830152610f1a81610c48565b9050919050565b60006020820190508181036000830152610f3a81610cae565b9050919050565b60006020820190508181036000830152610f5a81610cee565b9050919050565b60006020820190508181036000830152610f7a81610d54565b9050919050565b60006020820190508181036000830152610f9a81610dba565b9050919050565b60006020820190508181036000830152610fba81610e20565b9050919050565b6000602082019050610fd66000830184610e86565b92915050565b6000602082019050610ff16000830184610e95565b92915050565b600081519050919050565b600082825260208201905092915050565b600061101e826110a7565b9150611029836110a7565b9250827fffffffffffffffffffffffffffffffffffffffffffffffffffffffffffffffff0382111561105e5761105d611123565b5b828201905092915050565b600061107482611087565b9050919050565b60008115159050919050565b600073ffffffffffffffffffffffffffffffffffffffff82169050919050565b6000819050919050565b600060ff82169050919050565b60005b838110156110dc5780820151818401526020810190506110c1565b838111156110eb576000848401525b50505050565b6000600282049050600182168061110957607f821691505b6020821081141561111d5761111c611152565b5b50919050565b7f4e487b7100000000000000000000000000000000000000000000000000000000600052601160045260246000fd5b7f4e487b7100000000000000000000000000000000000000000000000000000000600052602260045260246000fd5b6000601f19601f8301169050919050565b61119b81611069565b81146111a657600080fd5b50565b6111b2816110a7565b81146111bd57600080fd5b5056fea264697066735822122046a622303a7bf8a84a15cae1583d87e885c688edfc1c5a2438445328a30fd5f864736f6c63430008000033",
    "linkReferences": {},
    "deployedLinkReferences": {}
}